:020000040800F2
:1000000000000120A13800086134000863340008B2
:1000100065340008673400086934000800000000F7
:100020000000000000000000000000006B34000829
:100030006D340008000000006F34000871340008BF
:10004000F1380008F1380008F1380008F1380008EC
:10005000F1380008F1380008F1380008F1380008DC
:10006000F1380008F1380008F1380008F1380008CC
:10007000F1380008F1380008F1380008F1380008BC
:10008000F1380008F1380008F138000800000000DD
:10009000000000000000000000000000F13800082F
:1000A000F1380008F1380008F1380008F13800088C
:1000B000F1380008F1380008F1380008F13800087C
:1000C000F1380008F1380008F1380008F13800086C
:1000D000F1380008F1380008F1380008000000008D
:1000E000F1380008F1380008F1380008000000007D
:1000F000000000000000000000000000F1380008CF
:1001000000000000F1380008F1380008F13800085C
:1001100000000000000000000000000000000000DF
:10012000F1380008F1380008F1380008F13800080B
:10013000F13800080000000000000000000000008E
:1001400000000000000000000000000075340008FE
:10015000F1380008F1380008F1380008F1380008DB
:10016000F1380008F138000800000000000000002D
:10017000000000000000000000000000000000007F
:1001800000000000F138000800000000000000003E
:04019000F13800083A
:1001940010B5054C237833B9044B13B10448AFF3BD
:1001A40000800123237010BDC8010020000000005E
:1001B400F43A000808B5034B1BB103490348AFF3F5
:1001C400008008BD00000000CC010020F43A0008C3
:1001D40053B94AB9002908BF00281CBF4FF0FF31AA
:1001E4004FF0FF3000F07AB9ADF1080C6DE904CEA0
:1001F40000F006F8DDF804E0DDE9022304B07047FE
:100204002DE9F0478C460D460446089E002B51D13B
:100214008A4217466DD9B2FA82FEBEF1000F0BD0A6
:10022400CEF1200C01FA0EF520FA0CFC02FA0EF7BE
:100234004CEA050C00FA0EF44FEA174A250CBCFBF5
:10024400FAF81FFA87F90AFB18CC45EA0C4508FBB3
:1002540009F3AB420AD9ED1908F1FF3280F023818A
:10026400AB4240F22081A8F102083D44ED1AA4B249
:10027400B5FBFAF00AFB105544EA054400FB09F902
:10028400A14509D9E41900F1FF3380F00A81A145A1
:1002940040F2078102383C44A4EB090440EA0840D8
:1002A4000021002E61D024FA0EF400233460736020
:1002B400BDE8F0878B4207D9002E54D0002186E890
:1002C40021000846BDE8F087B3FA83F1002940F025
:1002D4008E80AB4202D3824200F2FA80841A65EB2C
:1002E40003050120AC46002E3FD086E81010BDE87F
:1002F400F08712B90127B7FBF2F7B7FA87FEBEF110
:10030400000F34D1EB1B3A0C1FFA87FC0121B3FB1D
:10031400F2F8250C02FB183345EA03450CFB08F3FD
:10032400AB4207D9ED1908F1FF3002D2AB4200F21B
:10033400D1808046ED1AA3B2B5FBF2F002FB105552
:1003440043EA05440CFB00FCA44507D9E41900F179
:10035400FF3302D2A44500F2B8801846A4EB0C0483
:1003640040EA08409DE731463046BDE8F087CEF1CB
:10037400200405FA0EF307FA0EF720FA04F83A0CF3
:1003840025FA04F448EA0308B4FBF2F14FEA1845ED
:1003940002FB11441FFA87FC45EA044501FB0CF3F8
:1003A400AB4200FA0EF409D9ED1901F1FF3080F0E7
:1003B4008A80AB4240F2878002393D44EB1A1FFA2F
:1003C40088F5B3FBF2F002FB103345EA034500FB6A
:1003D4000CF3AB4207D9ED1900F1FF386FD2AB42F1
:1003E4006DD902383D44EB1A40EA01418FE7C1F16F
:1003F400200722FA07F88B4005FA01F448EA0303C0
:1004040020FA07FE4FEA134CFD404EEA040EB5FBFA
:10041400FCF94FEA1E440CFB19551FFA83F844EA11
:10042400054509FB08F4AC4202FA01F200FA01FAAC
:1004340008D9ED1809F1FF3043D2AC4241D9A9F1F2
:1004440002091D442D1B1FFA8EFEB5FBFCF00CFBAC
:1004540010554EEA054400FB08F8A04507D9E418F6
:1004640000F1FF3529D2A04527D902381C4440EABF
:100474000940A4EB0804A0FB02894C45C6464D463E
:1004840015D312D056B1BAEB0E0364EB050404FA8B
:1004940007F7CB401F43CC40376074600021BDE8B0
:1004A400F0871846F8E69046E0E6C245EAD2B8EB93
:1004B400020E69EB03050138E4E72846D7E7404616
:1004C40091E78146BEE7014678E702383C4445E7B8
:1004D400084608E7A8F102083D442BE7704700BF2F
:1004E4002DE9F04186B001240DF116036426009332
:1004F4000296234601947522D021804600F0F2FC36
:100504009DF81630682B32D106AD002705F8017D21
:1005140023466B22D021029601940095404600F0B8
:1005240051FC07238DF8173019222346D021029657
:1005340001940095404600F045FC23461C22D0213E
:1005440002960194009540468DF8177000F03AFC2D
:1005540002960194009523461B22D02140468DF833
:10056400177000F02FFC384606B0BDE8F081204635
:10057400FAE7000038B50E4A0E4B054618784FF4DA
:100584007A73B3FBF0F31068B0FBF3F000F0AAF851
:10059400044658B90F2D09D8024629464FF0FF30BA
:1005A40000F05EF8044B20461D6038BD012038BDC4
:1005B40010010020000000200400002008B50B4BAF
:1005C4001A6842F400721A601A6842F480621A606F
:1005D4001A6842F480721A60032000F02FF8002099
:1005E400FFF7C8FF02F01EFF002008BD003C0240D8
:1005F400034A044B11681B780B441360704700BF17
:10060400F401002000000020014B1868704700BF6F
:10061400F401002038B50446FFF7F6FF631C1CBF45
:10062400054B1B78054618BFE418FFF7EDFF401B88
:100634008442FAD838BD00BF00000020074AD368BE
:1006440023F4E0631B041B0C43F0BF63000243F478
:10065400003300F4E0600343D360704700ED00E032
:10066400174B30B5DC68C4F30224C4F10703251D1D
:10067400042B28BF0423062D4FF0010505FA03F3CC
:1006840003F1FF338CBF033C00241940A14005FA59
:1006940004F4013C2240002842EA01024FEA02121B
:1006A400ADBF00F1604000F00F00064B00F5614063
:1006B400B5BFD2B2D2B21A5480F8002330BD00BF05
:1006C40000ED00E014ED00E0002808DB42090123FE
:1006D40000F01F0003FA00F0014B43F822007047BA
:1006E40000E100E00138B0F1807F0AD2064B074AEE
:1006F4005860F02182F823100020072298601A60C5
:1007040070470120704700BF10E000E000ED00E0FA
:100714002DE9F04F85B00B68DFF88C81604A0193B6
:100724004FF001090023019D09FA03F42540AC426E
:1007340040F0A6804C6824F0100C0CF1FF36012E1A
:100744004FEA430E12D88768032606FA0EF627EA04
:100754000607CE6806FA0EF63E4386604768C4F381
:10076400001627EA05079E403E4346600326C768F5
:1007740006FA0EF6F64307EA060A8F6807FA0EF73A
:1007840047EA0A07BCF1020FC76016D14FEAD30A41
:1007940000EB8A0A03F0070BDAF820704FEA8B0BA0
:1007A4004FF00F0C0CFA0BFC27EA0C0C0F6907FA3C
:1007B4000BF747EA0C07CAF8207007683E4004F0BC
:1007C400030707FA0EFE4EEA06060660E60057D552
:1007D4004FF0000BCDF80CB0D8F84470314E47F40C
:1007E4008047C8F84470D8F8447007F480470397EA
:1007F400039F23F0030707F1804707F59C3703F0B5
:10080400030CD7F808A04FEA8C0C4FF00F0E0EFA29
:100814000CFEB0422AEA0E0E39D006F58066B042CC
:1008240037D006F58066B04235D006F58066B04212
:1008340033D006F58066B04214BF0726042606FAB4
:100844000CF646EA0E06BE601668EF4314F4803FC9
:100854000CBF3E402E431660566814F4003F0CBF94
:100864003E402E435660966814F4801F0CBF3E40F1
:100874002E439660D668A40254BF3E402E43D660F1
:100884000133102B7FF44FAF05B0BDE8F08F5E4607
:10089400D5E70126D3E70226D1E70326CFE700BF39
:1008A400003C0140000002400038024001684B69EE
:1008B40013F480634FF0000210D06FF480634B6137
:1008C4002023026380F83D3080F83E20036C80F8DA
:1008D4003C2043F00403036401207047184670472A
:1008E4002DE9F843044617469946C1F307488EB2EA
:1008F4002568B8F1010F0CBF6B69AB6936EA0303D5
:1009040014BF0120002008B9BDE8F8836B695A05BB
:1009140016D52B6843F400732B606FF480636B610E
:1009240020220023236384F83D2084F83E30226C87
:1009340042F00402226484F83C300120BDE8F883CC
:100944007B1CD5D0FFF760FEA0EB0900874201D3E2
:10095400002FCDD100232022236384F83D2084F886
:100964003E30226C42F02002E4E770B504460D46A6
:10097400164623685B695B0701D5002070BD2046DD
:10098400FFF794FFA8B96A1CF3D0FFF73DFE801B64
:10099400854201D3002DECD100232022236384F867
:1009A4003D2084F83E30226C84F83C3042F0200232
:1009B4002264012070BD70B504460D4616462068B9
:1009C400436913F0400301D0002070BD4269D20690
:1009D4000ED56FF0100242612022236384F83D207B
:1009E40084F83E30226C226484F83C30012070BDCF
:1009F400FFF70AFE801BA84201D8002DDFD1002397
:100A04002022236384F83D2084F83E30226C42F097
:100A14002002E8E72DE9F843089E044690461F4665
:100A2400C1F307498DB22368B9F1010F0CBF5B69AB
:100A34009B6935EA03030CBF01230023434502D01D
:100A44000020BDE8F8837B1CEDD0FFF7DDFD801BA3
:100A5400874201D3002FE6D100232022236384F8A8
:100A64003D2084F83E30226C84F83C3042F0200271
:100A740022640120BDE8F88370B504460D4616468D
:100A840023685B691B0601D5002070BD2046FFF773
:100A94000DFFA8B96A1CF3D0FFF7B6FD801B854291
:100AA40001D3002DECD100232022236384F83D20C0
:100AB40084F83E30226C84F83C3042F020022264F8
:100AC400012070BD2DE9FF41154602680B9E984632
:100AD400136843F4807313600F460A9B0096002248
:100AE4004FF001110446FFF795FF236838B11B68E6
:100AF400DB0502D54FF40073236403200AE007F0FA
:100B0400FE071F610A9A194933462046FFF7E8FE9B
:100B140018B1012004B0BDE8F081236803905A693C
:100B240003929B69039332460A99039B2046FFF77D
:100B3400A3FF40B1236C042B01BF2268136843F464
:100B440000731360E5E7B8F1010F236802D1EDB239
:100B54001D61DFE72A0A1A610A9932462046FFF727
:100B64008BFF0028E6D12368F1E700BF02000100F3
:100B74002DE9FF41984603680B9D16461A6842F416
:100B840080621A601A6842F480721A600F460A9BE7
:100B9400009500224FF001110446FFF73BFF236844
:100BA40048B11B68DB0502D54FF4007323640320AE
:100BB40004B0BDE8F081FFB207F0FE021A612A49D1
:100BC4000A9A2B462046FFF78BFE08B10120EFE777
:100BD400236803905A6903929B6903932A460A99EE
:100BE400039B2046FFF748FF40B1236C042B01BF51
:100BF4002268136843F400731360E7E7B8F1010F48
:100C0400236825D1F6B21E612A460A992046FFF7C9
:100C140033FF02460028E8D121680B6843F480734F
:100C24000B6020460A9B00954FF00111FFF7F2FE7E
:100C340023680028B5D147F001071F610A9A0A49C1
:100C44002B462046FFF74CFE003018BF0120AFE7CB
:100C5400320A1A610A992A462046FFF70DFF002836
:100C6400C3D12368CEE700BF0200010070B504467B
:100C740008B9012070BD90F83D3003F0FF021BB9A4
:100C840080F83C2002F032FB242384F83D302368B2
:100C94001A6822F001021A601A6842F400421A60CB
:100CA4001A6822F400421A6001F034F96568414B75
:100CB4009D424DD8404B9842DBD922683F49536846
:100CC400B0FBF1F123F03F030B435360136A23F0AD
:100CD4003F03013119431162D169364B21F44F416D
:100CE4009D4221F0FF0100F1FF3048D86D00B0FBB8
:100CF400F5F00130C0F30B03042B38BF04230B437E
:100D0400D3611168206AE36921F0C00103430B43F6
:100D140013609168E068236921F40341034321F0DF
:100D2400FF010B439360D168A069636921F0FF015F
:100D340003430B43D360136843F0010313600020A3
:100D44002023206484F83D30206384F83E0070BD85
:100D54001B4B98428DD92268184E5368B0FBF6F6A7
:100D640023F03F0333435360136A4FF49671714386
:100D740023F03F034FF47A76B1FBF6F1A9E7A368B9
:100D840053B905EB4503B0FBF3F0431CC3F30B036A
:100D94006BB143F40043B2E719236B43B0FBF3F0A8
:100DA400431CC3F30B0313B143F44043A7E70123EC
:100DB400A5E700BFA08601007F841E0040420F000B
:100DC400FF083D002DE9F743044699460F46904637
:100DD4000C9EFFF719FC94F83D30202B054603D0F8
:100DE400022003B0BDE8F0830090192301223B499F
:100DF4002046FFF70FFE0028F2D194F83C30012B77
:100E0400EED0012384F83C3023681A68D1075EBF12
:100E14001A6842F001021A601A6822F400621A6029
:100E2400212384F83D30402384F83E30002323649A
:100E34000A9B6362BDF82C306385638D2385284B40
:100E4400E362019500964B46424639462046FFF739
:100E540039FE00282AD00120C3E7FFF70DFE40B178
:100E6400236C042B01BF2268136843F400731360DE
:100E7400F1E7636A27681A4612F8011B3961626256
:100E8400628D218D013A92B262857A69481E80B2E0
:100E9400520720850AD548B15A783A610233636211
:100EA400638D013B02399BB221856385238D2A46DC
:100EB40031462046002BD0D1FFF757FD0028CFD173
:100EC4002268136843F400731360202384F83D30D0
:100ED40084F83C0084F83E0083E700BF0200100061
:100EE4000000FFFF2DE9F043044687B099460D4604
:100EF4009046109FFFF788FB94F83D30202B064660
:100F040004D00225284607B0BDE8F08300901923D9
:100F1400012277492046FFF77DFD0028F1D194F89E
:100F24003C30012BEDD0012384F83C3023681A684F
:100F3400D0075EBF1A6842F001021A601A6822F4F0
:100F440000621A60222384F83D30402384F83E3046
:100F5400002323640E9B6362BDF83C306385638D7C
:100F64002385644BE3622946019600974B4642462B
:100F74002046FFF7FDFD054608B10125C2E7228D95
:100F8400236892B902905A6902929A690292029A6B
:100F94001A6842F400721A60202384F83D3000235A
:100FA40084F83E3084F83C30ACE7012A2CD11A682E
:100FB40022F480621A6003905A6903929A69039238
:100FC400039A1A6842F400721A60DFF82C81238DA8
:100FD400002BE1D0032B6ED8012B2DD1324639469C
:100FE4002046FFF7E8FC0028C7D12268636A12692B
:100FF4001A70636A01336362238D013B2385638D19
:10100400013B9BB26385E2E7022A0ED11A6822F4FF
:1010140080621A601A6842F400621A6004905A6985
:1010240004929B690493049BCFE705905A69059247
:101034009B690593059BC8E7022B00963B464FF03E
:1010440000024146204619D1FFF7E4FC002894D160
:1010540023681A6842F400721A60626A1B6913708A
:10106400626A531C6362238D013B2385638D013BBC
:101074009BB2638523681B695370BAE7FFF7CAFC08
:10108400024600287FF479AF2368196821F480614F
:101094001960616A1B690B70636A009601336362AD
:1010A400238D013B2385638D013B9BB263854146C0
:1010B4003B462046C8E7324639462046FFF77BFCCC
:1010C40000287FF45AAF2268636A12691A70626A50
:1010D400531C6362238D013B2385638D013B9BB2CB
:1010E40063852368596949077FF571AFC3E700BF7A
:1010F400020010000000FFFF04000100F0B50446E8
:101104008BB060B390F8BD33056803F0FF021BB9E0
:1011140080F8BC2302F0FAF9032384F8BD33EB6BA7
:10112400254613F4807355F8100B08BF236100F0B3
:10113400D3FF0FCD6E460FC60FCD0FC695E8030043
:1011440086E803002546271D97E80E0055F8100B86
:1011540000F008FF064620B1022384F8BD330125C0
:1011640050E00146206800F0BDFF3046D4F804E0AA
:101174001C264FF0010C0146C2B2964500F1010055
:101184001CD800231C261946D8B2864503F1010356
:1011940022D80FCD6E460FC60FCD0FC695E80300BB
:1011A40086E8030097E80E00206800F0DDFF0123C5
:1011B400054600B3022284F8BD23D0E706FB0243B0
:1011C40083F83DC083F83C20A3F8422083F83F1005
:1011D400596499641965CFE706FB004282F8FD1152
:1011E40082F8FC0182F8FF11C2F80412C2F8081256
:1011F400C2F81012C8E784F8380084F8BD332068B8
:1012040001F01EFB28460BB0F0BD90F8BC33012B57
:1012140010B5044616D00123006884F8BC33A36AD1
:10122400012B06D1A369012B1EBF836B43F48033CA
:10123400836300F04BFF206801F0F4FA002084F887
:10124400BC0310BD022010BD2DE9F04FD0F800A062
:1012540087B00446504601F030FB0290002840F06D
:101264002381206801F0FAFA002800F01D8120682B
:1012740001F0F4FA870748BF2268206842BF536927
:1012840003F00203536101F0E9FAC6062BD5226884
:10129400936923F010039361DAF82050C5F34343B4
:1012A400022B05F00F0740F0028147F6F0731D4250
:1012B40014D01C2606FB0746C5F30A152A46D6F8A1
:1012C4000812504601F038FAD6F808322B44C6F812
:1012D4000832D6F814321D44C6F8145222689369B1
:1012E40043F010039361206801F0B8FA050300F19C
:1012F400ED80206801F0B2FA40030CD5206801F0BB
:10130400B9FA254603900AF510694FF00008039BCB
:10131400002B40F07F81206801F0A0FA002815DA44
:10132400DAF8043823F00103CAF8043894F8F433E3
:10133400012B40F00082002184F8F413204600F0D1
:1013440071FB2268536903F000435361206801F084
:1013540085FA01050BD5DAF80838DA0702D52046F4
:1013640002F044F92268536903F40063536120686E
:1013740001F074FAC30435D50AF500656B6820687A
:1013840023F001036B60102100F0C4FE60680AF5CD
:1013940010634FF67F31029A824240F0D081EB69AC
:1013A40043F00113EB61236B002B00F0E481D5F8CB
:1013B400843043F00B03C5F884306B6C43F00B03AB
:1013C4006B64DAF80038217C206823F4FE63CAF8E1
:1013D400003804F5717201F085FA2268536903F448
:1013E40080535361206801F039FA870416D52068C8
:1013F40001F067FA206800F071FFE060256800F0F2
:1014040083FD227B0146284600F0ECFD204602F0D5
:10141400DAF82268536903F400535361206801F039
:101424001DFA060707D5204602F0C9F82268536959
:1014340003F008035361206801F010FAC50208D5CF
:101444000021204602F0F2F82268536903F4801365
:101454005361206801F002FA800208D50021204679
:1014640002F0E0F82268536903F400135361206822
:1014740001F0F4F9410007D5204602F0DBF82268B8
:10148400536903F080435361206801F0E7F9420790
:101494000AD523685D686B0702D5204602F0CEF8B2
:1014A40023685A6815435D6007B0BDE8F08F062BCA
:1014B4007FF414AF082204F5717150461C2601F024
:1014C4003BF906FB0746C5F30A1502E7206801F05D
:1014D400C9F90AF53066814627460025B9F1000F9F
:1014E4003FF407AF19F0010F57D05FFA85FB594657
:1014F400206801F0C7F910F0010F80461AD0206867
:1015040021690123B36000F5306303EB451301291E
:10151400D0F840E09A6865D1110707D59B498E45FC
:1015240008D9100406D54FF4004202E091063AD5DA
:1015340020229A6018F0080F1FD00823B360236894
:101544009249D3F840B003F5306303EB45138B4560
:101554009A6804D9120444BF4FF400429A602046AA
:1015640002F016F8894B9B4507D92169012904D15A
:1015740004F57172206801F0B5F918F0100F1CBF62
:101584001023B36018F0200F1CBF2023B36018F49D
:10159400005F1CBF4FF40053B36001354FEA590993
:1015A40020361C379AE712F0280FC3D177498E45AD
:1015B40001D91204B7D41B69D7F80422C3F3120368
:1015C400D31AC7F81432D7F808321A44C7F80822D5
:1015D4008DB9D4F8103273B904F57172012101F098
:1015E40081F908E06A498E450AD110049BD491061A
:1015F40001D520229A605946204601F0CFFF99E791
:10160400002DF8D1D4F81032002BF4D104F5717206
:101614002946E4E7039BDE0740F184805FFA88FBF8
:101624005946206801F037F90646F00721D5DAF863
:1016340034382169012008F00F0200FA02F223EA8B
:1016440002038142CAF83438C9F808000DD1AB6CE2
:101654006A6C1344AB64B8F1000F06D1236D23B94F
:1016640004F57172206801F03DF95946204601F0F5
:101674009EFF310744BF0823C9F80830F20644BF6F
:101684001023C9F80830730644BF4023C9F8083052
:10169400B70744BF0223C9F80830300642D56B6D42
:1016A4002E6DB3423ED8F61A6B6C226804929E42A9
:1016B40028BF1E4602F51063033603EB4813B60831
:1016C4000593059B2F6D9B699BB2B3426B6D27D32A
:1016D4009F4225D977B9049B08F00F0203F5006BEC
:1016E4000121D3F8343801FA02F223EA0203CBF8D9
:1016F400343017E0FF1A6B6C04989F4228BF1F46D2
:10170400237C00935A46BBB2A96C00F013FFAB6C68
:101714003B44AB646B6DFE1C1F44B6086F65D0E799
:101724009F42D8D9039B5B0808F1010803931C3539
:1017340009F12009EBE5204601F070FF01E699600C
:101744001A6822F400121A601A6842F000621A60E1
:10175400C3F80812D3F8002222F40012C3F80022BE
:10176400D3F8002242F00062C3F80022029A013248
:10177400029220330FE66B6943F4005343F02B03CA
:101784006B612B6943F00B032B611AE60A30544F4B
:101794000A31544F90F8BC23012A10B504460BD0EB
:1017A400012280F8BC2384F83810006801F02AF87C
:1017B400002084F8BC0310BD022010BD70B504469F
:1017C40001F00F0011F0800F4FF01C06C5B206FBAC
:1017D400054115BF06FB054506FB05453C3101F5F2
:1017E400FE7115BF0126002685F83D6085F8FD6170
:1017F4008A604A78CB70C0B2087002B1C880022BEC
:1018040004BF00230B7194F8BC33012B09D00123CE
:1018140084F8BC33206800F06CFD002084F8BC031D
:1018240070BD022070BD01F00F03DAB210B504469A
:101834001C2011F0800F00FB024119BF3C3100FB5A
:10184400024200FB024201F5FE7115BF0120002097
:1018540082F83D0082F8FD010B7094F8BC33012B33
:1018640009D0012384F8BC33206800F085FD0020F2
:1018740084F8BC0310BD022010BD38B501F00F057B
:101884001C2404FB050104FB050401F5FE71C4F8E6
:1018940010320023C4F80822C4F8143284F8FD314D
:1018A40084F8FC5103690068012B08BFC4F80C22BA
:1018B400DAB21DB900F0B4FD002038BD00F04EFED0
:1018C400FAE738B501F00F051C2404FB050104FBFD
:1018D40005043C312365002363650123A26484F875
:1018E4003D3084F83C5003690068012B08BFE26472
:1018F400DAB21DB900F094FD002038BD00F02EFED0
:10190400FAE738B5436801F00F059D4204462ED826
:1019140011F0800F4FF01C021FD002FB050102FBE7
:10192400050301223C3381F83D2001229A701D7089
:1019340094F8BC1391421CD084F8BC231946206847
:1019440000F008FF2DB904F57172217C206800F0C5
:10195400C9FF002084F8BC0338BD02FB010302FB6D
:101964000101002203F5FE7381F8FD21DDE701206A
:1019740038BD022038BD38B5436801F00F029A42E1
:10198400044626D81C2311F0800F03FB020119BF63
:101994003C3103FB020301F5FE7103FB024314BF58
:1019A400012000204FF0000514BF83F83D0083F8A8
:1019B400FD018D700A7094F8BC33012B0BD0012308
:1019C40084F8BC33206800F0F2FE84F8BC53284647
:1019D40038BD012038BD022038BD70B50468636A83
:1019E40021B943EA0243A362002070BDA06A4D1EE0
:1019F40003EB10430020461CC0B2854206D83F3199
:101A040004EB810443EA02436360EDE7403004EBF6
:101A14008000406803EB10433046ECE70368002085
:101A240059627047704700002DE9F341044608B934
:101A340001203FE00368DD0710D4236898075AD4D7
:101A440023681A0700F19C8023685B0700F1BA80C1
:101A5400A069002840F01B8100202BE0A44B9A6869
:101A640002F00C02042A07D09A6802F00C02082A39
:101A74000AD15B68590207D59D4B1B689A03DCD5D4
:101A84006368002BD9D1D3E76368994DB3F5803FE0
:101A940013D12B6843F480332B60FEF7B5FD944DCE
:101AA40006462B689B03C8D4FEF7AEFD801B642852
:101AB400F7D9032002B0BDE8F081B3F5A02F04D11B
:101AC4002B6843F480232B60E3E72A6822F48032F6
:101AD4002A602A6822F480222A60002BDDD1FEF7D6
:101AE40093FD06462B689F03A7D5FEF78DFD801B4B
:101AF4006428F7D9DDE77E4B9A6812F00C0F07D003
:101B04009A6802F00C02082A11D15B685E020ED4B6
:101B1400774B1A68950702D5E268012A88D11A68BA
:101B2400216922F0F80242EAC1021A6088E7E268F9
:101B3400704BB2B101221A60FEF766FD6C4D064689
:101B44002B68980707D52B68226923F0F80343EA2A
:101B5400C2032B6074E7FEF757FD801B0228EFD900
:101B6400A7E71A60FEF750FD614D06462B689907FA
:101B74007FF566AFFEF748FD801B0228F6D998E78B
:101B840062695D4B7AB101221A60FEF73DFD584D42
:101B940006466B6F9F073FF557AFFEF735FD801B79
:101BA4000228F6D985E71A60FEF72EFD504D064649
:101BB4006B6F98077FF548AFFEF726FD801B022860
:101BC400F6D976E74A4B1A6C12F0805228D101926A
:101BD4001A6C42F080521A641B6C03F08053019318
:101BE400019B0126454D2B68D9051BD5A368404DA3
:101BF400012B27D12B6F43F001032B67FEF704FD64
:101C04003B4D074641F288382B6F9B0739D5002E90
:101C14003FF41EAF364A136C23F08053136417E766
:101C24000026DFE72B6843F480732B60FEF7ECFC9F
:101C340007462B68DA05D9D4FEF7E6FCC01B022858
:101C4400F7D936E7052B04D12B6F43F004032B6738
:101C5400D0E72A6F22F001022A672A6F22F00402D9
:101C64002A67002BCAD1FEF7CFFC41F28838074619
:101C74002B6F9807CBD5FEF7C7FCC01B4045F7D99F
:101C840017E7FEF7C1FCC01B4045BDD911E7184D4D
:101C9400AB6803F00C03082B47D0194E002302282D
:101CA400336035D1FEF7B0FC07462B68990129D47F
:101CB400226AE3691343626A43EA8213E26A43EAEB
:101CC4000263A26A0A4C5208013A43EA02436B6077
:101CD40001233360FEF798FC054623689A013FF51B
:101CE400BBAEFEF791FC401B0228F6D9E1E600BF2B
:101CF4000038024000004742800E47420070004016
:101D040060004742FEF780FCC01B0228CDD9D0E614
:101D1400FEF77AFC04462B689B017FF59DAEFEF727
:101D240073FC001B0228F6D9C3E601283FF4C2AEB7
:101D34006868E36900F480029A427FF479AE226A0B
:101D440000F03F0393427FF473AE626A47F6C073B8
:101D5400034093427FF46CAEA26A00F44033934292
:101D64007FF466AEE36A00F07060C01A18BF012009
:101D7400A0E600BF134908B58B6803F00C03042BDD
:101D840003D0082B03D0104808BD104808BD4A688A
:101D94004B68496813F4800314BF0C480A48C1F324
:101DA400881118BF002302F03F02A1FB0001FEF7D7
:101DB4000FFA044B5B68C3F3014301335B00B0FBD0
:101DC400F3F008BD003802400024F40040787D019F
:101DD4002DE9F0410D46044610B90120BDE8F0811B
:101DE400444B1A6802F00F028A4229D321688F07F4
:101DF4002ED4C80741D43F4B1A6802F00F02954213
:101E040067D3226851076DD4130707D53A4A21696D
:101E1400936823F4604343EAC1039360FFF7AAFF86
:101E2400354B364A9B68C3F30313D35CD840344B19
:101E34001860344B1868FEF79DFB0020BDE8F08164
:101E4400CAB21A701B6803F00F039942C5D1CDE7DB
:101E5400294B11F0040F1EBF9A6842F4E0529A60B5
:101E64000E0742BF9A6842F460429A609A68A0687A
:101E740022F0F00202439A60BBE762681E4B012A1B
:101E84001DD11B6813F4003FA7D01B4EB36823F089
:101E940003031343B360FEF7B7FB41F288380746E8
:101EA400B368626803F00C03B3EB820FA3D0FEF7B0
:101EB400ABFBC01B4045F3D90320BDE8F081911E64
:101EC40001291B6802D813F0007FDDE713F0020F2D
:101ED400DAE7EAB21A701B6803F00F039D427FF43D
:101EE4007CAF8EE70449E0688B6823F4E053034336
:101EF4008B6089E7003C0240003802400C3B00083C
:101F04001001002004000020014B1868704700BF36
:101F140010010020044B054A9B68C3F38223D35C61
:101F2400034A1068D8407047003802401C3B000840
:101F3400100100200A4B013B01D1032070470269C4
:101F4400002AF8DA0369064A43F001030361013AFF
:101F5400F3D0036913F00103F9D11846704700BFA9
:101F6400410D030084B038B505AD85E80E000A9B29
:101F7400012B044625D1836B23F480338363C36828
:101F840023F4840323F04003C360C36823F44013A1
:101F9400C360119B012B02BFC36843F48013C36069
:101FA400FFF7C8FF089B012B07D1A36843F0060382
:101FB400A360A36843F02003A360BDE8384004B0E5
:101FC4007047C36843F04003C360FFF7B3FF0E9B41
:101FD40023B9A36B43F48033A363E3E7A36B23F434
:101FE4008033F9E7022A58D12E4B2F4A0B449342EF
:101FF40047D92E4B2E4A0B44934244D9A1F574037E
:102004002C4AA3F5105393423FD9A1F1837302F5EF
:10201400C332A3F5E743A032934238D9264B274A6B
:102024000B44934235D9264B02F592220B4402F518
:10203400787293422FD9234B02F5C3220B4402F545
:102044002072934229D9A1F1B77302F5B712A3F50F
:10205400585302F55872934221D91B4B02F51222B0
:102064000B4402F5F862934294BF07230623C26827
:1020740022F47052C260C26842EA8323C360002023
:1020840070470F23F3E70E23F1E70D23EFE70C234B
:10209400EDE70B23EBE70A23E9E70923E7E7082346
:1020A400E5E700BF405327FFFF340C00401E1BFF31
:1020B4003F420F007F4F120060B6E5FE5FE316005B
:1020C40000D3CEFEC05BB3FEE05459FE836843F0F8
:1020D4000103836000207047836823F00103836059
:1020E4000020704708B5C368012923F0C043C360CA
:1020F40008D1C36843F00053C3603220FEF78AFA64
:10210400002008BD19B9C36843F08043F4E70120F7
:1021140008BD0000890141F02001064A0161013A2D
:1021240005D0036913F02003F9D118467047032042
:10213400704700BF410D03001023064A0361013AB2
:1021440005D0036913F01003F9D118467047032032
:10215400704700BF410D0300D0F800381943C0F8A0
:10216400001800207047000084B02DE9F8430446AD
:1021740009A880E80E000023139D0F46194603F1B9
:10218400400204EB820201330F2B5160F7D104F5B6
:102194000066002D6CD1736843F002037360A36B77
:1021A40043F40013A363A36B23F40023A363A36B7F
:1021B40023F48023A3630023C4F8003ED4F800383A
:1021C400C4F800380E9B012B5CD10B99002957D120
:1021D4002046FFF7C1FF10212046FFF79BFF014671
:1021E4002046FFF7A9FF00284ED1081C18BF012084
:1021F4000023336104F5106273611946F3614FF0F3
:10220400904E4FF0006C4FF67F38BB423ED1002118
:1022140004F530620F464FF0904E4FF0006C4FF6CD
:102224007F388B4245D1336923F4807333610023B3
:10223400A3616FF0804363610C9B1BB9A36943F0F6
:102244001003A361A269244B1343A3610F9B1BB129
:10225400A36943F00803A361012D01BFA36943F0FF
:10226400804343F00403A361BDE8F84304B070471E
:10227400A36B23F40013A363A36B43F4002399E734
:102284001946A5E70321A3E70120B1E7D2F800909E
:10229400B9F1000F0BDA3BB9C2F800C01161013388
:1022A400C2F808802032B0E7C2F800E0F6E7116017
:1022B400F4E7D2F80090B9F1000F0BDA39B9C2F89B
:1022C40000C017610131C2F808802032A9E7C2F8C2
:1022D40000E0F6E71760F4E700383C80D0F80838EF
:1022E40013F0060004D013F0020F14BF02200F20D5
:1022F400704770B54A780C78D0F81C6800F5006314
:10230400012A04F00F051BD1AA40324300EB44100C
:10231400DA61D0F800391A0410D48B68C978D0F87F
:102324000029C3F30A0343F0805343F4004343EA10
:10233400814343EA84531343C0F80039002070BD3D
:102344004FF48032AA40324300EB4410DA61D0F8F3
:10235400003B1B04F2D48B68C978D0F8002BC3F37C
:102364000A0343F0805343F4004343EA8143134395
:10237400C0F8003BE2E7000030B54B780C78012B45
:102384004FF0200300F5006204F00F0513FB040076
:1023940020D1D0F80039002B0BDAD0F8003943F003
:1023A4000063C0F80039D0F8003943F08043C0F826
:1023B40000390123D16BAB40DB431940D163D169B0
:1023C4000B40D361D0F80029134B1340C0F80039F7
:1023D400002030BDD0F8003B002B0BDAD0F8001BF6
:1023E40041F00061C0F8001BD0F8001B41F08041AF
:1023F400C0F8001B4FF48033D16BAB40DB43194072
:10240400D163D1690B40D361D0F8002B034B134047
:10241400C0F8003BDCE700BF007833EC0078F3EF52
:10242400F0B54B780C784E69414F012B4FF02003E7
:1024340059D113FB040336BBD3F8105925F0FF55CB
:1024440025F4C015C3F81059D3F8105945F40025E4
:10245400C3F81059D3F810592F40C3F81079012A42
:102464004FF0200329D10A691AB113FB0403C3F8FE
:10247400142900EB4410D0F8002942F00442C0F8BB
:1024840000290020F0BD03F510631D692F401F6172
:102494001D6925F0FF5525F4C0151D618D68AE42F8
:1024A40088BF4D611D6945F400251D614D691E6994
:1024B400C5F3120535431D61D1E713FB0404D4F8B9
:1024C400003943F00443C4F800394B69002BD8D0D9
:1024D4000A78D0F8343802F00F0101228A401A43F6
:1024E400C0F83428CDE713FB040000F530631C6901
:1024F40027401F611C6924F0FF5424F4C0141C619C
:102504008C6806B14C611D6945F400251D611D6987
:10251400C4F312042C43012A1C6102D1CA6802B11B
:102524005A61D0F8003B43F00443C0F8003BA8E7ED
:102534000000F8FF10B59DF808404CB9033300EBD8
:10254400023023F0030300F580500B44994201D17B
:10255400002010BD51F8042B0260F7E7F7B54B7863
:102564000E78734F012B4FF020044B6914FB0604C3
:1025740040F09880002B38D104F51065D4F8104948
:1025840024F0FF5424F4C0142C612C6944F4002476
:102594002C612C6927402F61012A4FF0200454D16B
:1025A4000B691BB114FB0604C4F81439CB78012B56
:1025B40010D1D0F8083813F4807F4FF0200313FBB8
:1025C4000603D3F800290CBF42F0005242F08052B7
:1025D400C3F8002900EB4610D0F8003943F0044357
:1025E400C0F80039002003B0F0BDD4F810592F40D2
:1025F400C4F81079D4F810598F6825F0FF5525F4E4
:10260400C015C4F81059DD19013DB5FBF7F7494D64
:10261400D4F810E905EAC74545EA0E05C4F810598F
:10262400D4F81079C3F312053D43C4F81059CD789A
:10263400012D04F51064AFD1256925F0C04525614D
:10264400256945F000552561A6E714FB0604D4F876
:10265400005945F00445C4F80059CD78012D0CD03B
:10266400002BBFD00B78D0F8344803F00F020123BD
:1026740093402343C0F83438B4E7D0F8085815F42D
:10268400807FD4F800590CBF45F0005545F08055C3
:10269400C4F800590C7800929BB22246C968FFF72F
:1026A40049FF9FE704F5306635692F403761356986
:1026B40025F0FF5525F4C01535618D6823BB3369BA
:1026C400C5F312051D433561336943F40023012A20
:1026D400336102D1CB6803B17361CB78012B0CD188
:1026E400D0F8083813F4807FD4F8003B0CBF43F0D3
:1026F400005343F08053C4F8003BD4F8003B43F04C
:102704000443C4F8003B6DE70A4FD6F810E02B44AD
:10271400013BB3FBF5F307EAC34747EA0E0737610A
:102724009BB237696B43C3F312033B43CFE700BF4C
:102734000000F8FF0000F81F033222F003020A44ED
:1027440000F58050914201D108467047036841F872
:10275400043BF7E74B780A78012B4FF0200313FB77
:10276400020012D1D0F80039002B06DB2AB1D0F8D0
:10277400003923F08043C0F80039D0F8003943F41D
:102784000013C0F8003900207047D0F8003B002B3C
:1027940006DB2AB1D0F8003B23F08043C0F8003BAD
:1027A400D0F8003B43F40013C0F8003BEBE74B7850
:1027B4000A78012B4FF0200313FB020011D1D0F84B
:1027C400003923F40013C0F80039CB78023B012B05
:1027D40005D8D0F8003943F08053C0F80039002000
:1027E4007047D0F8003B23F40013C0F8003BCB78CB
:1027F400023B012B9EBFD0F8003B43F08053C0F84E
:10280400003BECE7D0F8003823F4FE63C0F800384E
:10281400D0F80038090101F4FE611943C0F800182A
:1028240000207047D0F8003E23F00303C0F8003EB8
:10283400D0F8043823F00203C0F8043800207047AD
:10284400D0F8003E23F00303C0F8003ED0F804386B
:1028540043F00203C0F804380020704742698069DD
:1028640010407047D0F8183800F50060C06918406F
:10287400000C7047D0F8183800F50060C0691840A3
:1028840080B2704700EB411100F50060D1F8082BCD
:1028940040691040704710B5D0F81048D0F834386B
:1028A40000EB411001F00F01CB4000F51060DB019B
:1028B4008068DBB22343184010BD406900F001007A
:1028C4007047D0F8003923F4FF6323F00703C0F8FE
:1028D4000039D0F8043843F48073C0F80438002079
:1028E4007047000010B5164B046C9C4203D9D0F815
:1028F400003B002B21DB0024C0F8104BD0F8104B18
:1029040044F40024C0F8104BD0F8104B44F01804E1
:10291400C0F8104BD0F8104B012944F0C044C0F863
:10292400104B08BFC0F8142B00F5306302BFD0F879
:10293400003B43F08023C0F8003B002010BD00BFE3
:102944000A30544F22230380004870478C00002033
:102954002223038000487047B00000202223038014
:1029640000487047EC000020D0F8BC3200201873F7
:10297400704700000A23038000487047E0000020ED
:1029840037B50025ADF806500D78D0F8BC4215F0E7
:10299400600503460A461DD0202D64D149780239CA
:1029A40009295ED8DFE801F013095D5D5D5D5D5DB9
:1029B4000F0593782360002058E001222146184631
:1029C40000F010FCF7E753881B0A6360F3E7012269
:1029D400211DF4E749780B2943D801A050F821F0D0
:1029E400152A0008BB290008672A0008672A00087E
:1029F400672A0008672A0008252A0008672A0008B1
:102A0400672A0008672A0008492A0008592A00088A
:102A140093F89C12032924D102220DF10601CEE77A
:102A24005188090A222905D1D28811494A2A28BF86
:102A34004A22C4E7212914D1D2880E49092A28BF81
:102A44000922BCE793F89C1203290AD1012204F15C
:102A54000801B4E793F89C12032902D19378A36088
:102A6400A9E71146184600F096FB032003B030BDD9
:102A740008000020D400002038B50446812100F06D
:102A84002DFED4F8BC0200252587658718B100F017
:102A940061FFC4F8BC52002038BD38B5044610208C
:102AA40000F050FF0546C4F8BC0208B9022038BD46
:102AB400237C63B9072363870322042381212046EF
:102AC40000F0FCFD012300202387287338BD0A236E
:102AD400F1E7A0B1D0F8B83213B10023C0F8B8328E
:102AE400D0F8CC3213B10023C0F8CC3209B1C0F80D
:102AF400B412012380F89C32027000F0A3BD0320BD
:102B0400704737B500240546ADF8064051B1C0F80A
:102B1400B8128B6A0DF106009847C5F8CC0220461E
:102B240003B030BD0320FBE700F0BABDD0F8B832E3
:102B34000BB11B6818470320704708B5D0F8B832AA
:102B44000BB15B689847002008BD38B5044600F215
:102B5400AA25284600F00BFB012394F8AA12C4F816
:102B64009432B4F8B032C4F8983201F01F03012B48
:102B74000FD008D3022B12D0204601F08001BDE80B
:102B8400384000F0B9BD29462046BDE8384000F081
:102B9400F5B829462046BDE8384000F02FBA29464A
:102BA4002046BDE8384000F050BA70B504461646D9
:102BB40009BBD0F89432032B0ED1D0F85C31D0F895
:102BC400602193420AD99B1A9A42C0F85C3128BF0B
:102BD4001A46314600F01BFB002070BDD0F8B83215
:102BE4001B6923B190F89C22032A00D19847204600
:102BF40000F015FBF0E7D0F8B8329B6933B190F8D8
:102C04009C22032A02D1BDE870401847032070BDFE
:102C140070B5044616460D4600293BD1D0F89432CF
:102C2400022B0ED1C269036A9A4213D9D21AC26125
:102C3400314600F0E4FA2B462A462946204600F0A5
:102C4400A7FD94F8A032012B4FF000002ED184F898
:102C5400A00270BD0CD183699A4209D8D0F8982299
:102C6400934205D20A4600F0CAFAC4F89852E2E741
:102C7400D4F8B832DB682BB194F89C22032A01D132
:102C8400204698478021204600F036FD204600F07B
:102C9400D1FAD6E7D0F8B8325B6933B190F89C2208
:102CA400032A02D1BDE870401847032070BD0123F8
:102CB40070B580F89C32D0F8BC3200210446C0F8CC
:102CC40094124160C0F8A4121BB1D0F8B8325B680A
:102CD400984700224025114601264023204600F053
:102CE400EDFCA4F86461C4F860512B4600228021F5
:102CF400204600F0E3FCA6842562002070BD017428
:102D04000020704790F89C3280F89D32042380F8AC
:102D14009C320020704790F89C32042B04BF90F83A
:102D24009D3280F89C320020704708B590F89C22B0
:102D3400032A04D1D0F8B832DB6903B198470020E4
:102D440008BD002070470020704700207047012212
:102D540008B580F89C22D0F8B82212B152680179E3
:102D64009047002008BD10B58021044600F0C4FC43
:102D740020460021BDE8104000F0BEBCF7B50B783A
:102D840003F06003202B04460E4612D0402B10D0D3
:102D9400002B59D14B78092B55D8DFE813F00001EB
:102DA4001E01540015015400810014005400E90070
:102DB400A000D4F8B83231469B68204698470546AF
:102DC400284603B0F0BD0023ADF806304B881A0A3C
:102DD400013A062A37D8DFE802F0041C2936364EB9
:102DE4005800D0F8B4321B68207C0DF106019847D6
:102DF400F288002A00F0ED80BDF806301BB39A4239
:102E040028BF1A46ADF806200146204600F0EAF92C
:102E14005FE0027CD0F8B83232B99B6A0DF106004B
:102E2400984702234370E3E7DB6AF7E7DBB2052B3D
:102E340009D8DFE803F0030C1014181CD0F8B432DE
:102E44005B68002BD0D12046FFF78DFF41E0D0F81E
:102E5400B4329B68F5E7D0F8B432DB68F1E7D0F818
:102E6400B4321B69EDE7D0F8B4325B69E9E7D0F816
:102E7400B4329B69E5E7037C002BE4D1D0F8B83287
:102E84000DF106005B6B9847B2E7037C002BDAD1A7
:102E9400D0F8B8320DF106001B6B98470723C1E741
:102EA4008B88002BCFD1CF88002FCCD14D887F2D9C
:102EB400C9D890F89C32032BE9B2C4D080F89E1292
:102EC40000F04AFC204600F0AAF925B1022384F858
:102ED4009C32002574E7012384F89C3270E78D78D6
:102EE400454E012D357003D9FFF73DFF032567E7F4
:102EF40090F89C32022B08D0032B16D0FFF733FF37
:102F040031782046FFF719FEF0E7002D61D001214A
:102F14004160FFF70BFE0546204615B1FFF723FF7E
:102F24004EE700F07CF90323D6E755B9022380F875
:102F34009C3245602946FFF700FE204600F06FF9F9
:102F44003EE74168012944D0C9B2FFF7F6FD317864
:102F540061602046FFF7EAFD0546002839D0204687
:102F6400FFF701FF21792046FFF7E7FD0223B3E7CE
:102F7400CA88012A7FF467AF90F89C32002B3FF493
:102F840062AF022B04D9032B7FF45DAF011D3CE734
:102F94000146002541F8085F00F024F910E790F895
:102FA4009C32013B022B3FF64EAFCB88022B7FF4C1
:102FB4004AAF0123C360D0F8A4320BB10323C3602A
:102FC400022204F10C0120E74B88012B81D1C0F8C7
:102FD400A432204600F023F97BE790F89C32013BB1
:102FE400022B4FF0000599D84B88012B7FF4E8AEF3
:102FF400C0F8A452A1E700BFE401002070B50B782B
:1030040003F06003202B04460E4602D0402B00D070
:10301400BBB994F89C32013B022B11D83379012BB4
:103024000ED8D4F8B83231469B6820469847F388C6
:1030340005461BB910B9204600F0F1F8284670BDCA
:103044002046FFF790FE0025F8E770B50B7803F0F3
:103054006003202B04460D4613D0402B11D06BB9CE
:103064006A788B88012AD9B220D03FD3032A05D1AC
:1030740090F89C32022B30D0032B0AD0FFF773FE5A
:1030840012E0D4F8B832294620469B68BDE8704067
:1030940018476B882BB94A0603D0EB880BB900F0AC
:1030A4002BFB204600F0BBF8002070BD90F89C324A
:1030B400022B12D0032BE1D16B88002BF4D14E06E6
:1030C40001D000F027FB204600F0A9F8D4F8B8326C
:1030D40029469B6820469847E6E74B0617D000F040
:1030E4000BFB8021204600F007FBDDE790F89C22D3
:1030F400022A0ED0032AC1D113F0800F01F00F026F
:103104004FF0140303FB020212D0928CDAB920466A
:10311400B4E74A06FBD11B064CBF00F1140100F5CD
:10312400AA7100230B600222204600F05BF8BBE783
:10313400B2F86421002AEAD001F07F0503FB0505FB
:1031440005F5AA7504E001F07F0505FB0335054488
:1031540011F07F0303D12B6002222946E4E72046C5
:1031640000F0E6FA08B10123F5E72860F4E70B78EC
:1031740003704B784370CA788B7843EA0223438008
:103184004A790B7943EA02238380CA798B7943EA2B
:103194000223C380704710B58021044600F0ACFAC6
:1031A40020460021BDE8104000F0A6BA30B588B131
:1031B40005462B1A15F8014BDBB2002CF9D101336B
:1031C4005B0013800B7003234B700138022310F84B
:1031D400012F02B930BDCA545A1CD2B202338C54E6
:1031E400DBB2F4E710B513460222C0F894228361DF
:1031F4000A46C361002100F0BDFA002010BD08B5E5
:1032040013460A46002100F0B5FA002008BD08B5AF
:1032140013460A46002100F0BBFA002008BD08B599
:103224000423C0F8943200231A46194600F0A2FA87
:10323400002008BD08B50523C0F8943200231A46BF
:10324400194600F0A5FA002008BD000084B0164B12
:1032540000220092196B41F004011963196B01F00B
:103264000401009100990192196B41F080011963E6
:10327400196B01F08001019101990292196B41F0DF
:1032840001011963196B01F0010102910299039282
:103294001A6B42F002021A631B6B03F002030393DE
:1032A400039B04B0704700BF0038024008B50C48C7
:1032B4000C4BDFF834E04FF4804280E808400023F0
:1032C4008360C360026143618361C3610362FDF78C
:1032D400CDFC18B1BDE8084000F0A2B808BD00BF9D
:1032E400F801002000540040A086010030B50446D7
:1032F40089B01422002103A800F034FB2268144B87
:103304009A4223D1134C144800250195236B43F0B2
:1033140002032363236B03F002030193019BC02385
:10332400039312230493012305930323069303A910
:1033340004230793FDF7ECF90295236C43F400137F
:103344002364236C03F400130293029B09B030BD81
:1033540000540040003802400004024030B595B0EB
:103364003022002108A800F0FDFA0021142203A84D
:1033740000F0F8FA00241E4B01941A6C42F08052BB
:103384001A641B6C1B4A03F080530193019B029443
:10339400136823F4404343F400431360136803F4B5
:1033A40040430293029B012308934FF48033099313
:1033B4004FF480030F93192310934FF4A8731193C0
:1033C40004230225129308A8072313930E95FEF7EE
:1033D4002BFB0F23039329464FF4805303A8049532
:1033E400059406930794FEF7F3FC15B030BD00BFB7
:1033F400003802400070004008B5FDF7DFF8FFF721
:10340400ADFFFFF723FFFFF751FF00F05FF803481C
:10341400FDF766F86420FDF7FDF8FBE7F8010020EE
:103424007047000082B00C4B002100915A6C42F4AA
:1034340080425A645A6C02F480420092009A0191CC
:103444001A6C42F080521A641B6C03F0805301938F
:10345400019B02B0704700BF003802407047FEE78E
:10346400FEE7FEE7FEE7704770477047FDF7C0B818
:103474000148FDF7E9BE00BF1C05002008B50A4B52
:103484001968024609B9094919601868694602446D
:103494008A4206D900F02CFA0C2303604FF0FF3067
:1034A40008BD1A6008BD00BFE8010020280B0020F9
:1034B400054BD3F8882042F47002C3F888204FF0FB
:1034C40000629A60704700BF00ED00E008B500227A
:1034D4000B490C48FFF7FDFA08B1FFF7A1FF0A49B1
:1034E4000848FFF70EFB08B1FFF79AFF0548FFF7FE
:1034F4001BFB18B1BDE80840FFF792BF08BD00BF31
:10350400140100204C0200205400002030B5044671
:1035140089B01422002103A800F024FA2368B3F12F
:10352400A04F2ED1184C194800250195236B43F068
:1035340001032363236B03F001030193019B4FF405
:10354400C0530393022304930323069303A90A237A
:103554000793FDF7DDF8636B43F080036363029523
:10356400636C43F480436364636C03F480430293A9
:1035740043202A462946029BFDF772F84320FDF7B3
:10358400A3F809B030BD00BF00380240000002407B
:1035940000F57171D0F80404FFF7D7BA1C2303FBBC
:1035A4000103D0F80404D3F80822FFF7FEBA1C2361
:1035B40003FB0103D0F804049A6CFFF729BBD0F88D
:1035C4000404FFF7B2BBC368022B10B5044601D054
:1035D400FFF726FFD4F804040121FFF790FBD4F889
:1035E4000404BDE81040FFF762BB000010B50446B8
:1035F400D0F80404FFF786FB2268D2F8003E43F0BB
:103604000103C2F8003E236A23B1034A136943F05D
:103614000603136110BD00BF00ED00E0D0F8040400
:10362400FFF779BBD0F80404FFF78DBBD0F804048E
:10363400FFF787BBD0F80404FFF787BBD0F8040476
:10364400FFF785BB08B5027832BB144B0421C3F8DD
:103654000404C0F8C4324FF0A04083E80300022100
:103664001846D9601A619961DA611A625A62DA629B
:103674001A63FDF743FD08B1FFF7D2FE8021074826
:10368400FEF7CCF9402200210448FEF7A6F9802277
:1036940001210248FEF7A1F9002008BD1C05002005
:1036A40008B5D0F8C402FDF7B0FD03289ABF024B59
:1036B400185C032008BD00BF243B000810B51C465D
:1036C400D0F8C40213462246FEF778F803289ABFBE
:1036D400014B185C032010BD243B000808B5D0F84A
:1036E400C402FEF7A0F803289ABF024B185C03201B
:1036F40008BD00BF243B000808B5D0F8C402FEF79B
:1037040000F903289ABF024B185C032008BD00BFD0
:10371400243B000808B5D0F8C402FEF72CF90328AE
:103724009ABF024B185C032008BD00BF243B00086D
:1037340011F0800FD0F8C4324FF01C021BBF01F00F
:103744007F0102FB013102FB013191F83E0008BF09
:1037540091F8FE017047000008B5D0F8C402FEF7E6
:1037640019F803289ABF024B185C032008BD00BF58
:10377400243B000808B5D0F8C402FEF7A2F80328D9
:103784009ABF024B185C032008BD00BF243B00080D
:1037940008B5D0F8C402FEF770F803289ABF024BAC
:1037A400185C032008BD00BF243B000812230B80D3
:1037B400004870473001002004230B800048704704
:1037C40044010020002330B51D46DCB2A24200D8DB
:1037D40030BD040F092C94BF3034373401F8134042
:1037E40001EB4304000165700133EEE71A2310B5C1
:1037F4000B80094B186808331B68C0180AD0074BA4
:1038040007491C680822FFF7DDFF0422054920460A
:10381400FFF7D8FF044810BD107AFF1F147AFF1F6A
:103824004A0100205A0100204801002010B5044C30
:1038340004480A462146FFF7B9FC204610BD00BFE4
:1038440024090020413B000810B5044C04480A46F2
:103854002146FFF7ABFC204610BD00BF2409002021
:10386400543B000810B5044C04480A462146FFF7AF
:103874009DFC204610BD00BF24090020283B000801
:1038840010B5044C04480A462146FFF78FFC204635
:1038940010BD00BF24090020333B0008DFF834D0FA
:1038A400002103E00C4B5B58435004310B480C4B94
:1038B40042189A42F6D30B4A02E0002342F8043B32
:1038C400094B9A42F9D3FFF7F3FD00F017F8FFF71D
:1038D40093FD7047000001207C3B0008000000209D
:1038E400C8010020C8010020280B0020FEE70000CA
:1038F400014B1868704700BF6401002070B50D4E7D
:103904000D4CA41BA4100025A54209D10B4E0C4C50
:1039140000F0EEF8A41BA4100025A54205D170BD4B
:1039240056F8253098470135EEE756F82530984784
:103934000135F2E7743B0008743B0008743B00084F
:10394400783B0008024B0146186800F061B800BFDC
:1039540064010020024B0146186800F00BB800BF58
:103964006401002002440346934200D1704703F8E7
:10397400011BF9E738B50546002945D051F8043C48
:103984000C1F002BB8BFE41800F0B0F81F4A1368EE
:10399400104633B9636014602846BDE8384000F02F
:1039A400A6B8A3420CD921686218934204BF1A68CE
:1039B4005B68636004BF521822600460ECE713463E
:1039C4005A680AB1A242FAD919685818A0420BD110
:1039D40020680144581882421960DDD11068526889
:1039E4005A6001441960D7E702D90C232B60D3E74E
:1039F400206821188A4204BF11685268626004BFBB
:103A0400091821605C60C7E738BD00BFEC010020E5
:103A140070B5CD1C25F0030508350C2D38BF0C25D9
:103A2400002D064601DBA94203D90C233360002094
:103A340070BD00F05BF8234A1468214691B9224C0A
:103A440023681BB9304600F041F82060294630460F
:103A540000F03CF8431C26D10C233360304600F0C0
:103A640046F8E4E70B685B1B1AD40B2B0FD90B60E9
:103A7400CD50CC18304600F03AF804F10B00231D69
:103A840020F00700C31A1BD05A42E25070BD8C428A
:103A94000DBF63684B686360136018BF0C46E9E7A9
:103AA4000C464968CAE7C41C24F00304A04205D0AC
:103AB400211A304600F00AF80130CDD02560D9E74C
:103AC40070BD00BFEC010020F001002038B5064CA9
:103AD4000023054608462360FFF7D0FC431C02D1AF
:103AE400236803B12B6038BD240B00207047704756
:103AF400F8B500BFF8BC08BC9E467047F8B500BFD7
:083B0400F8BC08BC9E467047A6
:103B0C000000000000000000010203040607080981
:103B1C000000000001020304000301034849442093
:103B2C00436F6E6669670048494420496E7465723C
:103B3C00666163650053544D6963726F656C6563B0
:103B4C0074726F6E6963730053544D333220487531
:103B5C006D616E20696E746572666163650000004C
:083B6C0098C6FF7F0100000074
:043B7400B90100088B
:043B780095010008AB
:103B7C00010000001000000005010902A10109016B
:103B8C00A1000509190129031500250195037501EB
:103B9C00810295017505810105010930093109384A
:103BAC001581257F750895038106C0093C05FF0921
:103BBC00011500250175019502B12275069501B11B
:103BCC0001C000009F2A00087D2A000885290008F2
:103BDC0000000000000000006D290008000000003B
:103BEC000000000000000000000000005529000843
:103BFC0049290008612900087929000809022200D6
:103C0C00010100E032090400000103010200092156
:103C1C0011010001224A000705810304000A00007B
:103C2C0009022200010100E0320904000001030135
:103C3C000200092111010001224A00070581030439
:103C4C0000070000092111010001224A00000000B8
:103C5C000A060002000000400100000009022200D8
:103C6C00010100E0320904000001030102000921F6
:103C7C0011010001224A000705810304000A00001B
:103C8C000024F400B1370008BD37000831380008B3
:103C9C004D380008F13700086938000885380008ED
:103CAC00120100020000004083042B5700020102A5
:103CBC0003010000040309041A03000000000000C3
:103CCC0000000000000000000000000000000000E8
:103CDC00000000006801002000000000000000004F
:103CEC0000000000000000000000000000000000C8
:103CFC0000000000000000000000000000000000B8
:103D0C0000000000000000000000000000000000A7
:103D1C000000000000000000000000000000000097
:103D2C000000000000000000000000000000000087
:083D3C0000000000000000007F
:04000005080038A116
:00000001FF
